:1000000000000000D10B0000BD0A0000BD0A000086
:10001000BD0A0000BD0A0000BD0A0000BD0A0000C4
:10002000BD0A0000BD0A0000BD0A0000BD0A0000B4
:10003000BD0A0000BD0A0000BD0A0000BD0A0000A4
:10004000BD0A0000BD0A0000BD0A0000BD0A000094
:10005000BD0A0000BD0A0000BD0A0000BD0A000084
:10006000BD0A0000BD0A0000BD0A0000BD0A000074
:10007000BD0A0000BD0A0000BD0A0000BD0A000064
:1000800000480047D10B0000000000000000000005
:100090000000000000000000000000000000000060
:1000A0000000000000000000000000000000000050
:1000B0000000000000000000000000000000000040
:1000C0000000000000000000000000000000000030
:1000D0000000000000000000000000000000000020
:1000E0000000000000000000000000000000000010
:1000F0000000000000000000000000000000000000
:10010000F9050200BD0602002D080200E9090200FF
:10011000290A0200C504000051000200E90600009F
:100120000D0A0000250A0000290A00003988020093
:100130005188020059690000BD470000FD4B0000D6
:10014000ED160200CD160200F91102002544000050
:10015000191B0200F52902000546000001460000B7
:10016000C53B0200353E02009DA600006D2F020037
:100170006137020049B100003DB400001DF00000ED
:1001800001FE010009B402002D59010081F70100B0
:10019000E9AF0200C1AF0200ADAF0200A1AF0200A3
:1001A000FDAF020045FD010031B20200095E010011
:1001B000195E0100255E0100395E01004D5E0100FF
:1001C0005565010069650100216701007D5D010041
:1001D000D5740100C5800100F1460100054701000A
:1001E000B5470100154D0100ED0D0000010E0000A6
:1001F000610E0000110F0000513E0000390E020098
:10020000DD0D0200CD0B000071410000CD0B0000A0
:10021000CD0B0000CD0B0000CD0B000045AE001E45
:10022000BDAF001E8503001E9962001E3101001E35
:100230004903001E0599001E211F001E390E001ED5
:10024000F9B3001E4954001E49B2001E8D6D001EF8
:10025000D18B001E3D06001E7D07001E810B001E77
:100260009109001EC947001ED57C001E2558001E9E
:10027000A919001EFD1B001E210E001E8D36001E3A
:10028000218C001E3560001EB120001E7102001E70
:10029000A1A3001EC953001E0164001E0921001EF7
:1002A00089B3001EBD09001E75B7001E7D00020047
:1002B0004911001EAD000200113E001E810F001EFC
:1002C0008102001E395E001E39A8001EBD1E001EE0
:1002D0006D00001EA17B0200FD48001EB100001E43
:1002E000856E001EF59D001EE174001E296C001E27
:1002F000D99E001E91B6001E056C001E911C001EAA
:10030000F17D0200B9A2001EC93A0200DD04001E00
:100310004537001E7540001E3944001E81B9001E7D
:10032000116D001E21B5001EB10B001E994D001E5F
:1003300041A5001E9D35001EB111001EE5A4001E42
:1003400039AA001EA903001E6162001E69B8001EC2
:100350002971001E9909001E756E001E2D00001ED9
:10036000A97F001ED1AA001E8553001E4DFE02006B
:1003700021BB001E2138001E510C001EC1C6001EEC
:100380009970001EDD42001E590A001E857D020084
:10039000FD0C020019A3001E8905001E3164001E19
:1003A0004DC4001E0106001E811F001EEDB2001E7E
:1003B000ADC7001E95C9001EC11B001EE16B001ECB
:1003C000956C001E5903001E3505001E253D001EBC
:1003D000A543001E1D1E001E250A001ED15D001E25
:1003E000551F001EF161001E35B4001E8938001E25
:1003F000C53A001EF9A5001E65A4001E95FD020069
:10040000CD19001E9173001EE198001E451B001EB1
:10041000B9A7001E39B10200A539001EAD35001E76
:100420005197001EB595001EED7102007D7202000D
:100430000902001E11B3001E6554001E350D020096
:100440007599001E0D1C001E200000001F000000FA
:10045000010100000102020303000000000000008F
:10046000000000000000000000000000000000008C
:10047000000000000000000000000000000000007C
:10048000000000000000000000000000000000006C
:10049000000000000000000000000000000000005C
:1004A000000000000000000000000000000000004C
:1004B000000000000000000000000000000000003C
:1004C00000000000034B1A680023C2F84436D2F83B
:1004D00044367047840400007047C04630B5016858
:1004E00085B0A1F110030F2B054602D800F06EF97C
:1004F0002EE0836C174C0093436C2A46019383686B
:100500000293C36814480393EB6CA047EB69296915
:1005100000932B6A6A6901936B6A10480293AB6A75
:100520000393AB69A047AB6B2A6B0093EB6B0C4852
:1005300001932B6CE96A02936B6BA047094A40F266
:1005400043201368556043F48063136000F038FB68
:1005500005B030BD39AA001EBAB80200EFB80200DB
:1005600022B90200B4FC020010B54FF0004000F0C8
:10057000E5FA10BD10B54FF0004000F0C1FA10BD13
:1005800010B501F047F910BD104B10B51A68D2F83C
:10059000443613F0007F18D040230D4CC2F80836C3
:1005A000D2F80836FFF78EFF236863B1094B9847EE
:1005B000094B1B68C3EB00032068984203D9C01A9B
:1005C000064B984701E000F01BF910BD84040000C1
:1005D00060040000911C001E5C040000BD1E001E93
:1005E0002DE9F041284F3B78B3B9284E317899B9BD
:1005F000274B284D5C1B07D0274B2846224698479F
:1006000028462146254B9847254B264821469847A2
:1006100001233B70337034E0234F3E78BEB9234B47
:10062000234D5C1B08D031461B4B28462246984779
:1006300028462146194B98472146194B1D48984793
:10064000114B01201E70387000F082F819E0DFF8BD
:10065000748098F80060A6B9174B184D5C1B08D041
:1006600031460D4B284622469847284621460B4BDB
:1006700098470B4B12482146984701233E7088F853
:100680000030BDE8F081C0469FFA02009DFA0200EA
:1006900055250300F4FC0200E9090200451A001E7A
:1006A00039AA001E51B902009CFA0200618E0300B3
:1006B0005825030083B90200741C0400648E0300F3
:1006C000B5B902009EFA0200044B1A68044B1B687D
:1006D000D21A044B1868C0EB02007047AC0400004B
:1006E000700400008C0400007047C04610B5FFF78E
:1006F00047FFFFF739FF074B1C6805E0236A1B6AB9
:100700000BB120469847246B002CF7D1FFF732FF3E
:1007100010BDC046A8FA020010B50446FFF72AFF34
:100720002046FFF7D9FE2046FFF7E0FFFBE7C04673
:10073000034B10B51868034B1968034B984710BD5D
:10074000A4FA020084040000E50A02007047C046D3
:10075000184B2DE9F047D3F80080174BDD8808B916
:100760002F4600E0AF10144B0026B3F804901AE0B7
:10077000124B40464FF4E86198470F4B044630B99E
:1007800099882A4601390E4B0E48984710E01846C2
:10079000214601F017F8013628B1404621460022D3
:1007A000094B984704E009F1FF339B19BB42DFDB9B
:1007B000BDE8F087B4FA0200F8FB0200350D020034
:1007C00039AA001E64BB0200FD0C0200094B70B583
:1007D0001868094B9847094B05461C6807E0E36811
:1007E0001D4203D063680BB1A06898472468002CB1
:1007F000F5D170BDA4FA020031040200B0FA020083
:1008000010B5084C00232370074B9847237843B951
:10081000064B1B681BB15868054B984701E0FFF772
:1008200051FE10BD80040000F11A001E900400006B
:10083000BD1E001E7FB51D4B1D481E49C0EB0300A9
:100840001D4B1E4AC1EB03011D4B1E4CC2EB0302A4
:100850004FF49053A0471C4C2046A58800F0F6FCAE
:100860002489013D04FB05F6403404FB05F44FF4F4
:10087000806396FBF3F194FBF3F30246009102933D
:10088000294633460194114D1148A847114B124A8D
:100890001B681268C6EB03069B181B1B9A0A009282
:1008A0003146B20A0D48A8477FBDC0461CE1020090
:1008B000000000001CE102009CFA02009CFA020009
:1008C000F1FC0200AD1C001EF8FB020039AA001E5C
:1008D0007CBB0200700400008C040000A8BB020076
:1008E000012970B541D9506800210A22224B98474E
:1008F000224B04461A6890421ED921494B680BB11D
:100900001946FBE7C2EB04050C4612E04FF4806089
:1009100000211C4B98476060002826D04FF480626D
:10092000194B00219847154A64681368013D01334B
:100930001360002DEAD118E017D2114BC4EB020569
:1009400058680AE043680E4C013D63600F4B9847BE
:100950000A4A60681368013B13600DB10028F1D1A9
:10096000064B1A680AB9064B5A60044B08481968C6
:10097000084B984770BDC04635090200ACFA02002A
:10098000B8FA0200A919001EE9090200CD19001EDB
:10099000EEBB020039AA001E838999408368C85CB7
:1009A0007047C0468389D2B299408368CA54704761
:1009B00070B504460D4605212046FFF7EDFF10F007
:1009C000200FF8D0204600212A46FFF7EBFF70BD2C
:1009D00010B5D0F8A04004E021680348034B9847C5
:1009E000E468002CF8D110BD0EC0020039AA001E28
:1009F00010B50020014B984710BDC046950102007C
:100A000010B5014B984710BD9501020010B5044B7D
:100A10000446984710B10123C4F8403110BDC046C8
:100A20005D020200A420704710B5024990221FF019
:100A3000FBFF10BD04BC02000023DAB20133400802
:100A4000FBD110467047C04670B504460D4604E021
:100A5000D4F8AC000122054B984729462046044BA8
:100A6000984701460028F3D170BDC046FD0C020036
:100A70000910001E10B5044604E0D4F8AC000022B2
:100A8000044B984701212046034B98470146002814
:100A9000F3D110BDFD0C02004911001E10B5054B2D
:100AA000044608460449984708B1002001E004F1D3
:100AB000900010BD9108020094BC02006846836952
:100AC00041690BB503695A4651460EB44A46414640
:100AD00006B4C36882684168FEB40368C269EFF374
:100AE00003810EB48269EFF3058106B403480168FF
:100AF0000029FED06846884714B000BDA00B000056
:100B00000A49084202D062B6C9430840084908426F
:100B100002D061B6C943084006490840002803D006
:100B200005490A6802430A6070470000000000801F
:100B300000000040FFFF000000E100E00A49084219
:100B400002D072B6C94308400849084202D071B6C3
:100B5000C943084006490840002804D005490A68EE
:100B6000C04302400A60704700000080000000405F
:100B7000FFFF000080E100E00249096890228858E8
:100B800070470000A80B0000024909689C228850A9
:100B900070470000A80B0000DDBAADBB00000000EC
:100BA0000000000000000000000000000000000045
:100BB000024A11681060081C70470000A00B00007A
:100BC00001490860FEE70000980B00007046F7E757
:100BD0005A4801685A4F0F403F4232D1002398468D
:100BE0009A46584A0A401821CA4057494358574C18
:100BF0001C40574DAC4204D18046564D4519A9467C
:100C00000EE0554DAC420BD18246524D4519AB46D4
:100C10000F241D1C2340514C25402D0A2B439C467C
:100C20000023984501D09A4504D14D4BC018013A94
:100C3000DCD105E05046004202D04046004229D1B6
:100C4000FEE7FC2141580A680F2313400F2BF1D017
:100C5000012B01D00431F6E70831424B1340424CDE
:100C6000A34206D100F0A8F8804600F0B1F8814612
:100C7000E9E73E4CA342E6D10B1F1B683C4C2340E6
:100C80001824E3409C4600F097F8824600F0A0F854
:100C90008346D8E7374921224250284A36498958A5
:100CA000FF23194222D05168344B19421ED01168DB
:100CB000334B1940D36A03242340324CA14203240E
:100CC00000D013E0A34211D02F4B2E4CA14200D0F4
:100CD0000CE02E498958194208D02D4989581940ED
:100CE0009942FAD11E4B11691942FCD0404629495C
:100CF000086048462849086028490F60284D29495E
:100D00000D60043DAD46009DEC431023DD41AC4237
:100D100001D081B009E0240CA400234D2C606B4667
:100D20001B1B224D2B60043B9D462148214900227C
:100D300004C08142FCD81FF07BF9FEE700000018D8
:100D4000000000F00000000FFC0F0000F08F00001A
:100D5000A0820000000F0000E08000000070000092
:100D60000010000000FF0F00002A0800000E08001D
:100D7000000000FFE0010000040600000000380051
:100D8000FFFF0000294300000004000018060000D7
:100D90000C060000A80B0000AC0B0000A40B000028
:100DA000008004001CE1020024E1020020E10200B6
:100DB0009CFA0200F1FC020008680F220431024094
:100DC000052AF9D1014A1040F746000000F0FFFF64
:100DD00008680F2204310240052AF9D1802210420E
:100DE000F6D0014A1040F74600F0FFFFD0F88C30F3
:100DF000D0F8802003EB8203D3F880007047C04610
:100E00004FF0FF307047C046C36B034A03F0030343
:100E100052F823007047C046A0BC020010B500F095
:100E2000AFF810BD73B51D468369044613F0005F2B
:100E30008E4612D022F08043009300214FF4A0721E
:100E40004EF08043054EB0473DB14FF08043204601
:100E500000214FF4A0720093B0477CBDBD04020096
:100E600010B500F0B9F910BD10B500F079F810BD5B
:100E700010B5064B044698470F28014601D90020BB
:100E800002E0204600F06CF810BDC0469DAA001E8E
:100E9000F7B5026B44F219339A4206460F461BD14E
:100EA000456BCDB9D9B10223009329464FF0FF33EA
:100EB0004FF4F0720F4CA0472A4640F61A01304614
:100EC000FFF7D6FF304601210B4B984730464FF4D1
:100ED00000612A46FFF7CCFF012F08BF02273046EA
:100EE000002140F234624FF0FF33024C0097A047DC
:100EF000FEBDC046BD040200B5040200034B10B5A0
:100F00001B6803FB01F1FFF7C3FF10BDE0FA02000D
:100F100010B500F00DF810BD0A607047C36F48F6B9
:100F2000F070D3F8FC3F03EA000000097047C046A8
:100F3000C36FD3F8FC0F00F4E04300F00F0040EA69
:100F400013207047D0F88C2002EB8103D3F8C00146
:100F500052F821300BB942F8210052F821007047B5
:100F6000D0F8843070B5994204460D4601D3002074
:100F700004E0FFF7E7FFC4F88050E06770BDC046AB
:100F80007047C04610F0030302D120F0FF000CE0D0
:100F9000012B04D120F47E6020F01F0005E0022B1D
:100FA00001D0002001E0000C00047047F7B5C46FC9
:100FB0000F46D4F8983F04F5706513F0010F06460C
:100FC00005F1980167D1D4F8983F13F4803F57D0CA
:100FD000D4F8982F42F00202FFF79EFFD4F8983F12
:100FE000012001932C4B98472C4C03E00A202A4BFC
:100FF00098470A3CD5F89C3013F0040F01D0092C17
:10100000F4D1D5F89C30D5F8F83013F0800F1BD010
:10101000D5F89020304605F1900142F00072FFF7BC
:101020007BFFD5F89030012001931B4B98471B4C58
:1010300003E00A20184B98470A3CD5F8903013F08B
:10104000C07F01D0092CF4D13A04304605F1980153
:1010500042F00312FFF760FFD5F898300A200193A1
:101060000D4B9847D5F8F83013F0800F08D0D5F81D
:101070009020304605F1900122F00072FFF74CFFFE
:101080003A04304605F1980142F00302FFF744FFAD
:101090000120014B9847FEBD51000200A9860100C6
:1010A000C36FD3F8180F00F03F0070472DE9F347E6
:1010B000C66F42EA010406F570658A46214644F08F
:1010C000030407464FEA044905F19808FFF76EFF4D
:1010D0004146384649F00102FFF71EFFD6F8983F17
:1010E000012001931A4CA047D6F89C3F05F19C01C2
:1010F00013F0010F03D038460022FFF70DFFD6F89A
:10110000903F06F579610193019B13F4C02F06D03F
:10111000D6F8902F384622F4C022FFF7FDFE414654
:101120004A463846FFF7F8FED6F8983F012001936B
:10113000A0474AF00102384641461204FFF7ECFE90
:10114000D6F8983F01200193A047BDE8FC87C04630
:101150005100020070B50F29044696461D46049EB4
:1011600001D9002028E0D0F88C2052F821302BB98A
:1011700002EB8103D3F8C03142F82130D4F88C302F
:1011800053F821100EEB010405B9A6B1BEF5706F3E
:101190006FEA050C08D35EF80120214602EA0C0232
:1011A0003243FFF7B9FE06E05EF8013003EA0C03B4
:1011B00033434EF80130206870BDC046C36F054808
:1011C000D3F8983F03EA0000B0F5803F14BF002039
:1011D0000120704707000100C36F70B5154603F585
:1011E00070640A4601B955B1D3F89C3F6FEA0242D8
:1011F0001A4004F19C0142EA0542FFF78DFED4F843
:101200009C00000C70BDC046C36F70B5154603F559
:1012100070640A4601B955B1D3F8983F6FEA0242AB
:101220001A4004F1980142EA0542FFF775FED4F82E
:101230009800000C70BDC046C38A11B143F48063AE
:1012400001E023F48063C382C2637047438802884D
:10125000934201D1002004E001D8D21A83889B1A5E
:1012600098B270470188438810B58B4201D10024A1
:101270000CE000EB81020023146C13644A1C81888B
:1012800092B2B2FBF1F301FB13230380204610BDA1
:1012900010B5B0F802E082880C460EF1010191FB16
:1012A000F2F302FB13139AB20388934203D000EBCC
:1012B0008E031C64428010BD18464B7B032B02D169
:1012C0004FF0FF3007E001EBC30358611A614B7B1D
:1012D000002001334B73704718468B7B032B02D1E0
:1012E0004FF0FF3007E001EBC303D8629A628B7BBB
:1012F000002001338B73704770B50446FFF7B2FFCF
:101300000246A8B9A37B7BB1012325460646E372BA
:1013100004E02B6A2046696A98470136A37B0835AA
:101320009E42F6DB0023E3722046FFF79BFF024656
:10133000104670BD70B50446FFF7AAFFE37BF3B912
:10134000627BE2B1E37AD3B9551E1E4610E0204617
:10135000FFF77CFF58B1237B0BB1334601E02B46EE
:10136000013D04EBC3031A692046596990470136D1
:10137000637B9E42EBDB237B83F00103237370BD11
:101380008388C288013B934270B504460D4602D162
:101390006FF01C0015E0084622460121FFF74CFFC4
:1013A000A3882288013399B26388A1809A4203D925
:1013B00004EB8103DD6303E020462946FFF768FF65
:1013C000002070BD83881E2928BF1E21013B994241
:1013D000B8BF194689B2C18008467047C1737047CB
:1013E0004260C260016081607047C0460EB433B590
:1013F00005AB054653F8042B006869680A4C019355
:10140000A047B0F1FF3F03D06B68984200DA10B9F3
:1014100000236B6004E01B1A6B602B681B182B60A9
:10142000BDE83C4003B0704739A8001E2DE9F041EB
:10143000069F0D461E4604E0AB8A9A4206D32D68ED
:10144000D21A0DB9A84618E0002AF5D14FF00008CD
:1014500011E0AB8A2869C2EB0304B44228BF3446CA
:10146000101839462246064B98472D68A04425B1EE
:101470003F19361B0022002EEBD14046BDE8F0811B
:10148000290A020030B5427887B00378009282784A
:101490000D460192C278064C02920279039242797B
:1014A000084604921221034AA047284607B030BDDF
:1014B0007DAA001E04BD020010B504490622044B9B
:1014C0009847D0F1010038BF002010BD22BD0200B6
:1014D0002D08020010B504490622044B9847D0F1AC
:1014E000010038BF002010BD28BD02002D080200F9
:1014F00010B5044B984718B100210A46024B984793
:1015000010BDC04615070200A1A3001E2DE9F04141
:101510008F8880460D460C46002611E0206C68B18D
:1015200000210A46FFF788FE084B4046216CAA7A44
:10153000984700232364AB88013BAB800136043419
:10154000BE42EBD10020BDE8F081C046FD0C020098
:101550002DE9F84F0E46156890469A46BC221F4B5F
:101560008346084600219DF828409847003C18BF54
:1015700001240023B4724FF01E021E2DB4BFA946F1
:101580004FF01E0934461F46A6F808A0C8F80030E0
:10159000F28017E058465146114B984704340546EF
:1015A00020B9738883B96FF01A000EE0012132462A
:1015B000FFF742FE7388E56301337380B388013718
:1015C0000133B3804F45E5DB00207388C8F8003055
:1015D000B3880133B380BDE8F88FC046E909020043
:1015E000350D0200012070477047C04670B50C4BA6
:1015F000054614469847002106462846FFF734FC66
:10160000D0F8183614B143F0200301E023F0200392
:10161000C0F8183631462846FFF726FC70BDC04694
:10162000410402002DE9F041464B0746984700214E
:1016300080463846FFF718FC0123C0F85036D0F832
:101640005436044623F00403C0F85436D0F8543618
:1016500043F00403C0F854363B4B1B7803F00F02F1
:10166000012A09D006D3022A02D04FF0060E27E045
:10167000364D1CE0062600E01E0940F2F13503E07D
:101680000A20334B98470A3DE36A13F0080F01D153
:10169000092DF5D1E26AE36A13F0080F0CBFB646D4
:1016A000C2F3431E0CE00A20294B98470A3DE36A27
:1016B00013F0080F01D1092DF5D1E36AC3F3431EDE
:1016C0000020C4F85806D4F85C36012123F06043AA
:1016D00043EA4E73C4F85C36C4F85816D4F85C2656
:1016E000CEF3C00322F001021343C4F85C36C4F801
:1016F0005006D4F8543623F0404343EA8E73C4F8BE
:101700005436C4F85016D4F85426CEF3810322F090
:1017100003021343C4F85436C4F85006D4F85436C0
:10172000384643F00053C4F85436C4F85016D4F881
:101730005436414623F00403C4F85436FFF794FBB3
:10174000BDE8F08141040200F0FC02008996980097
:1017500051000200436B2DE9F041174640F212227E
:10176000012B8CBF144612240E4B0E46984708B925
:1017700044F4806400200C490C4DA84720B100219E
:101780000A460B4B9847044600200A49A84708B967
:10179000094803E000210A46054B98473460386049
:1017A000BDE8F0818104020041BD0200150702007E
:1017B000A1A3001E46BD02003EF63F00C08AC0F352
:1017C0008020704710B5FFF7DBFD10BD10B5FFF7A7
:1017D00093FD10BD2DE970430D4B0D4640220021B5
:1017E0000446C668D0F83C90D0F808809847E38A51
:1017F000A5820335AD08E66043F48063A6EB850659
:10180000C4F808802661E382C4F83C90BDE8708388
:10181000E909020030BF70470246938A0069401A06
:10182000C9181061918270470246938A00695B1A59
:1018300040181061938270477047C0460069704736
:101840004269C069136A18401062704710B50446B7
:10185000FFF7F6FF08B12062012010BD43690022A6
:101860009A629B6A82617047C269436982619A6227
:101870007047C04610B50446FFF7E2FF236A0343F2
:10188000236210BD406A10B5436E984710BDC04634
:101890002DE9F7439DF828600F46804699460021C0
:1018A00002E0CB5D13B101319142FAD17B5C13B1FF
:1018B0006FF001007BE05EB14B1D4C1C934202D9DE
:1018C0006FF00D0073E001A839190422394B9847D5
:1018D0003C1D20463849394DA84728B9002E53D021
:1018E000019B0F2B5ED849E020463549A84708B92F
:1018F000013042E020463349A84708B902303CE0B5
:1019000020463149A84798B90EB903303DE0019A05
:10191000002A31D0D8F80C30DB6B13F0040F44D11F
:10192000072A3FD80123934013F0830F24D139E0D5
:1019300020462649A84708B904301EE0204624491D
:10194000A84708B9053018E020462249A84708B939
:10195000063012E020462049A84708B907300CE0BD
:1019600020461E49A84708B9083006E020461C4911
:10197000A847D0B9093000E0032036B1019B08EB3D
:101980008002C2F894310BE0304608EB8001094B2D
:10199000384601F5CA71042298470423C9F800307B
:1019A000002004E06FF01C0001E06FF01600BDE8BD
:1019B000FE83C046290A020060BD020091080200B1
:1019C0006DBD020079BD020085BD02008CBD020024
:1019D00095BD02009CBD0200A7BD0200B3BD020080
:1019E000BABD020070B50446002506E025B1A06826
:1019F000294601220B4B98473546606A0021C36A8D
:101A0000984706460028F1D155B10122054BA06840
:101A100029469847D4F8F830AB4208BFC4F8F860BC
:101A200070BDC046FD0C02002DE9F04F8346BBB0EF
:101A300000240F463794FFF7D5FFDBF8A4210121DE
:101A400004A85218874B9847012526461BE0002121
:101A500004A82246844B9847012D04D12369A2682B
:101A60009B1A0B2B0EDD23695B7913F0800F09D1D4
:101A700013F00F0F06D000E004462068013500285F
:101A8000FAD100E001260BF1280200921046002155
:101A9000764B984704460028D9D103E000980021EE
:101AA000714B984704A80021704B984702460028C4
:101AB000F4D1002E40F0D280DBF8F0301B689D425C
:101AC00000F2CC8079000C3189B2ADF8E610DBF879
:101AD00008001031664B98470290002800F0BE8045
:101AE000D0F810903AAC34F8022D624B314648469B
:101AF0009847614D214602224846A847BDF8E63086
:101B000009F10200DB43ADF8E63021460222A84786
:101B100009F10C0335460193ADF8E26003965EE0EF
:101B2000BA8AB84603E098469B8AD3189AB2D8F886
:101B30000030002BF7D13B69ADF8E6201E1D93F86D
:101B400004A00DB12F6015E04C4B09F104004AEAE6
:101B50000303369336A9484B082298479BF8063171
:101B60008BF8073189F80930BDF8E63003970C335C
:101B7000ADF8E63036AC404D204631460822A84745
:101B8000369B0AF1010223F0FF03D2B21A43214629
:101B9000369230460822A8479BF806318BF8073169
:101BA0007371DBF89C21BDF8E610531E5B18B3FB84
:101BB000F2F302FB03F292B2C1EB0201A8F8181093
:101BC000BDF8E230ADF8E420D318019AADF8E23068
:101BD000941C104639A90222A84745460194009852
:101BE0000021224B98470746002899D10BF1280A7B
:101BF0003946029ADFF870905046C847039A0C2184
:101C0000136910461C79FFF707FE039B0DF1E208EC
:101C10001E69194D414602223046A847BDF8E23000
:101C200044F04064DB43ADF8E23041460222B01C90
:101C300044F44074A84736A908223694301DA847BA
:101C40009BF8063150468BF8073173723946039A78
:101C5000C8479BF8043101338BF804313BB0BDE831
:101C6000F08FC0466507020065A4001E41A5001E56
:101C7000350D0200E9090200290A02000083000C68
:101C80002DE9F0410468144E94F87D51134F85B14D
:101C9000D4F88011D4F88421022381EA0202E0689A
:101CA000B047D4F88C01B4F88A110022B847002359
:101CB0000DE00223D4F88011D4F88421E068B04705
:101CC000D4F88C01B4F888112A46B847012384F867
:101CD0007D31BDE8F081C0462D0502000D1C001EBF
:101CE00070B590F87A310546C3B1D0F880318BB326
:101CF00000240223E868D5F88011D5F88421164E17
:101D00000134B047332CF4D1D5F88011D5F88421B3
:101D1000E86881EA02020223B0471BE090F87931BB
:101D2000C3B1D0F88011A9B190F87C6196B90A4C82
:101D3000C068D5F884210223A047B5F88811012492
:101D400085F87D4131B1D5F88C013246034B984777
:101D500085F87C4170BDC0462D0502000D1C001E9B
:101D600010B5D0F8FC300446194390F87731C0F82C
:101D7000FC10F3B111F0040F05D090F8783141EA6E
:101D80000363C0F8FC30D4F8FC30626913F00A0F2A
:101D90001CBF43F48023C4F8FC30D4F8FC30D36477
:101DA0000023C4F8FC3084F8773108335364FFF71C
:101DB00097FF10BD2DE9F0410546002748E0384B5C
:101DC000A86831469847D5F8F0301B68984205D985
:101DD000204600213246334B984746E0686A036E3E
:101DE0009847686A95F80541D0F8843098472418D8
:101DF00085F8064134690023A37195F8783131469E
:101E0000237295F80631012285F80731DBB263723F
:101E1000D5F8C831686A0133C5F8C831036A9847F4
:101E2000B0B9D5F8F8106379002932D013F00F0F4C
:101E30002FD06278237843EA02230F331B091A0A52
:101E40000A6918BF0023937195F87831137220E066
:101E5000D5F8F0301B6843B105F128042046002175
:101E6000114B984706460028A9D12FB16A6904236F
:101E700053642846FFF734FFEB8D0C2B03D92869F8
:101E800001F094F909E0072B07D8286901F090F9CF
:101E900003E00127C5F8F860DAE7BDE8F081C04645
:101EA0001906020081A5001E41A5001E2DE9F04182
:101EB000D0F8A4311546C28D04469A420F460CD381
:101EC000022D0AD18068374B01229847D4F8A831F7
:101ED00000200133C4F8A83162E0002104F1280099
:101EE0003A46314B9847022DE68D05D1D4F8A051E2
:101EF000012D05D0072D1DD02046FFF75BFF4EE0DA
:101F0000D4F894319E4207D320463146FFF78CFD2A
:101F10002046FFF74FFF0BE094F87B21002A3ED1CB
:101F2000D4F89001D4F89811204B984784F87B514D
:101F3000284635E094F87B311BB9606AC36B98473B
:101F400058B1D4F894319E4207D2D4F8AC31C3B121
:101F5000BA8AD4F8B0319A4213D8012E03D9204658
:101F60003146FFF761FD2046FFF724FF94F87B31EF
:101F7000ABB10F4BD4F890019847002384F87B3124
:101F80000DE094F87B2152B9084BD4F89001D4F8B5
:101F9000981198470123184684F87B3100E001200E
:101FA000BDE8F081FD0C020065A4001E0D1C001EA2
:101FB000351C001EF0B5D0F8A421E5B00D46012176
:101FC000064652183C4C684632AFA04738460121BD
:101FD0001022A0473046FFF705FD706A0024C6F8BE
:101FE000F84083689847ADB1D6F8F42092B13846EE
:101FF0002146324B9847C6F8F4400BE0BDF8CE209E
:10200000BDF8CC309A422CBF684632A82B4B002139
:1020100022469847706A0121C36A984704460028FF
:10202000ECD10EE06846C28883889A4204D200212F
:102030002246224B984704E0B06821460122204BFB
:10204000984706F12805284600211E4B984704466C
:102050000028E7D1706A4368984706E00B6930466C
:102060005A7902F00F02FFF721FF002132A8154B29
:10207000984701460028F1D114E0F28DD6F8A4313A
:102080009A420AD90E4BB068214601229847D6F8E9
:10209000A8310133C6F8A83104E0284600212246C1
:1020A000064B984768460021064B9847044600288F
:1020B000E3D165B0F0BDC0466507020065A4001E0F
:1020C000FD0C020041A5001E2DE9F04F002487B051
:1020D00001920494039490F874B181460F46D0F8AD
:1020E0000880BBF1000F01D0404613E00B698A68FD
:1020F00003F0030505F10C0A9B1A53451FD28E8A83
:10210000404606F10C014919324B9847044630B954
:10211000404639460122304B9847204657E0514609
:10212000FFF782FB396932462C4B206998473B68A0
:102130003946236040465A46274B984727466DB19B
:102140003B69BA689B1AAB4208D329463846FFF769
:1021500063FB386900212A46214B98473B69BA68DE
:102160009B1A0B2B03DD38460C21FFF755FB1D4B4B
:10217000394640463E69984706AC24F8020D174D93
:10218000214602223046A847BDF816302146DB43DF
:10219000ADF816300222B01CA847019A03A9130219
:1021A00099F8042103F47063134343EA0A63082295
:1021B0000393301DA84748463946019AFFF776FE3B
:1021C00028B199F804310120013389F8043107B0AE
:1021D000BDE8F08F350D0200FD0C0200290A020057
:1021E000E9090200F905020010B50022FFF76CFFB3
:1021F00010BDC04610B50B691A7C5B7C42EA032215
:1022000046F688439A4214BF02220122FFF75CFF80
:1022100010BDC046C38D70B505461BBB00F5EC7004
:10222000FFF7D4FA044628B9A8681C210E4B98473A
:102230000446B8B14FF00C030C21A3822046FFF7EF
:10224000F3FA284621460122FFF73EFF28B9D5F8C8
:10225000D0310133C5F8D03104E0D5F8CC310133A9
:10226000C5F8CC3170BDC046350D0200B2F1FF3F5C
:1022700010B501D1FF2307E0022A00D00AB982F08D
:10228000020201239340DBB2012990F8782101D1A9
:10229000134301E022EA030380F87831FFF7BAFF25
:1022A00010BDC04670B50D4629B3486A18B391F801
:1022B000753103B391F8D431012B1CD0D1F8B8316A
:1022C000CBB1036E9847686A95F80541D0F8843021
:1022D000984795F807212418E4B2944285F80641FE
:1022E00009D095F80531C3EB0203DBB2022B02D80B
:1022F0002846FFF78FFF70BD10B50468002384F8EF
:102300007B31D4F8A031E18D23B1012902DD2046D3
:10231000FFF78AFB2046FFF74DFD10BD70B590F822
:1023200078310546FF2B15D0406A036E9847686ADE
:10233000D0F88430984768B1686A95F80541D0F8BC
:1023400084309847241885F8064100F09DFB284604
:10235000FFF760FF70BDC04670B50446406A0025B7
:10236000836C9847606A836898472046FFF78AFA2B
:10237000606A0121836A984700210A46E0680D4B94
:102380009847E068FEF74AFDD4F8F41084F8055148
:1023900084F80451C4F8FC5029B1A0680122064B0E
:1023A0009847C4F8F450C4F8F850256284F8745182
:1023B00070BDC046AD040200FD0C02002DE9F743DC
:1023C0000F6905460E4608460821FFF72DFA7B885F
:1023D0009AB212F00F0927D012F0010F04D0D5F8ED
:1023E00054310133C5F8543112F0020F04D0D5F83E
:1023F00058310133C5F8583112F0040F04D0D5F824
:102400005C310133C5F85C3112F0080F04D0D5F807
:1024100060310133C5F8603147480121FEF7DEFF26
:10242000A868314600220EE0B38A032B0DD8D5F8F8
:1024300044310133C5F844313F480121FEF7CEFF56
:10244000A86831464A463D4B72E0022231693C4C55
:102450000DF10600A04731690222023101A8A04710
:102460003B88BDF806109BB28B4206D1CB431B04C0
:10247000BDF804201B0C9A4215D03B889BB28B42BE
:1024800004D0D5F848310133C5F84831CB431B049B
:10249000BDF804201B0C9A42CED0D5F84C31013344
:1024A000C5F84C31C8E704213046FFF7BDF9B38ABF
:1024B000072BC1D933690821DC78304693F80180B5
:1024C0001F780C3CFFF7B0F9B38AE1B28B42B3D36B
:1024D0003046FFF7A9F995F805319F4206D0D5F8A7
:1024E000503185F805710133C5F8503195F8053143
:1024F000013385F8053118F00F0304D128693146FE
:1025000000F092FE15E0022B04D12869314600F05C
:10251000BDFE0EE0012B07D1A86831464A46074BA5
:102520009847FEF765FA04E0A868044B314600229C
:102530009847BDE8FE83C046F8FB0200FD0C020090
:10254000290A0200012370B5054680F8D431406A9B
:10255000836C984703E028462146FFF72FFF686AFF
:10256000C36D984704460028F5D101210F48FEF7B6
:1025700035FF2846FFF786F9686A436C984721467D
:102580000A48FEF72BFF686A036E9847686A85F869
:10259000D441D0F8843095F805419847241885F83F
:1025A00006412846FFF736FE70BDC046F8FB020024
:1025B00070B50546406A43689847686A436C984717
:1025C000686A036E9847686A95F80541D0F88430C8
:1025D00098472418686A85F806411B49036F984795
:1025E000D5F88011C5F8F00089B1D5F8842102230F
:1025F00081EA0202154CE868A047D5F88011022351
:10260000E8680A46124CA047002385F87D3195F80A
:1026100076310BB10F4B00E00F4BEB616A69012380
:1026200085F8753185F877314FF08073C2F8003145
:1026300003F17F43284685F87B31FFF715F92846DB
:102640000821FFF78DFB70BD94BC02002D05020030
:10265000690502000FFF01C70FFF01072DE9F041D7
:1026600090F87A610023076A05460362D6B990F8AC
:102670007931BBB1D0F88011A1B1D0F88421022307
:10268000C06881EA02028D4CA04795F87C3185F83C
:10269000796185F87D612BB1D5F88C01884B98471D
:1026A00085F87C6117F0804606D02846FFF754FE77
:1026B0002846FFF77DFF34E0002F2FDA6B695B6857
:1026C00013F0040418D095F8743133B92846314614
:1026D000FFF770FC2846FFF735FF286985F874611D
:1026E00000F068FD6A6928461368022143F004037C
:1026F0001360FFF735FB11E0012385F87431286979
:1027000000F05AFD28462146FFF754FC2846FFF703
:1027100019FF6A69136823F00403136095F8744184
:1027200014B14FF000085DE117F0010F07D0284603
:102730000121FFF73FFC28460121FFF711FB17F0AD
:10274000020F09D0012385F87731D5F8FC301BB191
:1027500028462146FFF704FB17F4807F04D0D5F804
:1027600064310133C5F8643117F4007F12D0D5F815
:102770006831D5F8F4100133C5F8683131B1514BE7
:10278000A868012298470023C5F8F43028460021A4
:10279000FFF710FC17F0007F04D0D5F86C3101333F
:1027A000C5F86C3117F0806F04D0D5F87031013363
:1027B000C5F87031444807EA000008B98046B9E01E
:1027C00017F47C4F63D017F4806002D106460446AC
:1027D0000BE0686A036D9847061E18BF0126686AF9
:1027E000436A9847041E18BF012417F4006F0BD0EA
:1027F000686A036D9847002818BF0126686A436A13
:102800009847002818BF012417F4805F0BD0686A2E
:10281000036D9847002818BF0126686A436A9847E5
:10282000002818BF012417F4005F04D0D5F8383110
:102830000133C5F8383117F4804F09D0D5F83C3151
:1028400001260133C5F83C31D5F83C31D5F8383193
:1028500017F4004F0FD0D5F84031D5F8F4100133FC
:10286000C5F8403131B1174BA868012298470023C1
:10287000C5F8F43001240EB90CB908E024B128469B
:102880000021FFF797FB16B12846FFF75BFE17F014
:10289000807F02D02846FFF7A5F817F4903315D1B2
:1028A0001E4641E028460136FFF788FD082E0ED16E
:1028B0002B6A43F480332B620FE0C0462D050200E3
:1028C000351C001EFD0C020000FC01010026686A98
:1028D000C36D984701460028E4D100214348FEF724
:1028E0007DFD686A036E9847686A95F80541D0F8DF
:1028F000843098472418686A85F80641D0F88430F7
:10290000984708B900F0C8F895F8063195F80721FE
:10291000934209D095F80531C3EB0203DBB2022BD9
:1029200002D82846FFF776FC072E94BF4FF0000828
:102930004FF0010817F0040F23D0D5F8801101B330
:1029400001236A6985F87931136A526A134013F0DA
:10295000F00603D02846FFF7C3F912E0D5F884212A
:102960000223E86881EA0202214CA04795F87C31F5
:1029700085F87D612BB1D5F88C011E4B984785F801
:102980007C61EE8D002E2DD0D5F8A041012C02D017
:10299000072C0CD023E095F87B211ABBD5F89001C9
:1029A000D5F89811144B984785F87B411AE095F8B3
:1029B0007B3173B1D5F894319E420AD200210F4B7E
:1029C00005F12800984703695B7803F00F03032B98
:1029D00008D1012E03D928463146FFF725F82846AD
:1029E000FFF7E8F94046BDE8F081C046F8FB020079
:1029F0002D050200351C001E0D1C001E29060200BC
:102A0000012970B5054607DD0023C0F8B431C0F8D0
:102A1000C031C0F8C43123E0124CD5F8A421E98DAF
:102A20001148A047D5F8A8111048A047D5F8C431DF
:102A3000D5F8C021D5F8B4110D48A047D5F83C1100
:102A40000C48A04795F8061195F807210A48A047B9
:102A50000A48D5F8C811D5F8CC21D5F8D031A0470F
:102A600070BDC04639AA001EFFBD020015BE02009F
:102A700028BE020053BE02006FBE020098BE0200D4
:102A80004FF0FF307047C046024B1A6A00231362B2
:102A90007047C04650E10200024B1A6A024B1362B3
:102AA0007047C04650E10200212B000010B50446DB
:102AB0008068FFF7D3FD30B1002104F11C000A4605
:102AC000034B984702E0A068FEF7CEFE10BDC0465B
:102AD0000D1C001E10B5846AA068FEF7B7FE28B171
:102AE000A068FEF7BBFE2046FFF7E0FF10BDC04622
:102AF000836A10B5986900F0BDFB10BD8B6A10B5F4
:102B000004462146986900F095FB10BD10B5446855
:102B1000A068FEF7AFFE2046FFF7C8FF10BDC04615
:102B2000836A10B5986900F0ABFB10BD0A46816A54
:102B3000034610B58869194600F05AFB10BDC0461F
:102B40000246938A0069401AC91810619182704741
:102B50000246938A00695B1A40181061938270479D
:102B600081827047C08A00F007007047C38A01F075
:102B7000070123F007031943C1827047C08AC0F3DD
:102B8000001070478B8A70B5032B0C46806818D9EB
:102B90000D692B781B09012B13D16978204601F0B0
:102BA0000701FFF7E3FF2B7813F0080F03D0E38A48
:102BB00043F00803E38220460421FFF7C9FF002009
:102BC00004E021460022024B9847012070BDC04618
:102BD000FD0C02000B698A682DE9F0419B1A032B5A
:102BE0000C4686682CDC8F8A3046391D204B98476E
:102BF000054630B92146304601221E4B98472C46E7
:102C000033E02046FFF7AEFF01462846FFF7AEFF50
:102C10002046FFF7B3FFEB8A10B143F0100301E049
:102C200023F0100328692169EB823A46124B0430E5
:102C300098472146304601220E4B98472C4603E028
:102C400008460421FFF77CFF256910232B702046DE
:102C5000FFF794FF08B114232B702046FFF782FF83
:102C600000236870AB70638BEB702046BDE8F08189
:102C7000350D0200FD0C0200290A02002DE9F04F7B
:102C80000A6995B08C8A93680692126805900020B4
:102C90000F2C89460E930F9213901290119040F2D0
:102CA0005482069B5A68130C1B0413925BB1190CD7
:102CB00013041B0C8C42139304D26FF00D0A139073
:102CC000099045E20A46139BB3F5005F06D900233D
:102CD0006FF0170A1E46139309933AE2A4F110030A
:102CE0009A4234BF92469A46D9F80C10069A484642
:102CF000891AFFF735FFD9F81020D9F80830C3EB4F
:102D00000201102903D948461039FFF719FF102195
:102D10004846FFF71DFFD9F80010B9F814B039B1D3
:102D2000059B002298689A4B98470023C9F8003009
:102D3000139901F110035B450ED8D9F81080D9F82A
:102D40000830C3EB08031F2B06D94846FFF708FFDE
:102D5000002601220A9215E0059B303198688D4BC0
:102D60009847064618B9012280460A920AE02021B7
:102D7000FFF7EEFE30461399FFF7F2FE0023D6F878
:102D800010800A9300220892099252E0139B10339C
:102D90009A4528BF53460993002B50D0184600216E
:102DA0007D4B98470890002827D0099B4F46CBEBD6
:102DB00003050FE0059AB5F5E86F34BF2E464FF4D2
:102DC000E86690683146734B98470446386020B1F6
:102DD0000746AD1B002DEDDCC2E1059BD9F80010C4
:102DE0000122C9F800009868694B9847059A08992C
:102DF00090686A4B099A98472646694B1B78D3B16D
:102E0000139A02F1100353450BD90BF57C739A42C8
:102E100007D9A2F5806313930122002308930B9234
:102E2000B4E7ABF110031393D9F810800023089393
:102E300001220B920CE06FF01A0A13938AE10E9BA9
:102E4000DDF820B04FF0FF3ACDF84C800793D4E086
:102E5000B8F1000F9AD0BAF1000F06D0069A40469A
:102E600002F110014F4B524698474F4B0F9A9A422E
:102E700003D00E9B144607931CE0BAF1070F06D847
:102E80000E9ADDF820B06FF0170A0792B5E0089BA4
:102E9000D8F8044033B9002E14BF30464846082104
:102EA000FFF756FE0E9A08F1080842F00202AAF156
:102EB000080A07923D4BE318B3F5997F88BF234674
:102EC000B3F5837F0F933CD004D8022B48D0FD2B61
:102ED00011D04BE00F9A40F207139A4222D00433EC
:102EE0009A4243D1059B00211868314A4FF47A7306
:102EF000304CA04738E098F8021098F801300904E7
:102F000041EA032198F80030059A194398F80330F4
:102F1000106841EA036100F05DF9DDF820B04FF080
:102F2000000A6AE0404624490422244B984705469B
:102F3000E0B901230093059B4146586852462B4651
:102F40000BE040461C4904221C4B984770B9059A77
:102F500000905068139A414613ABFEF799FC03E0CA
:102F6000059B186800F02AF9824644E00E9A079BF8
:102F7000C2F3033113F0020212A821D011AB019366
:102F8000059A0123CDF800A00290039310681FE07A
:102F9000FD0C0200350D0200A919001E1D1E001EA9
:102FA0008CE10200290A02003EDAFEFFE0EB1B0082
:102FB000E1310000511C001ECCBE0200C508020019
:102FC000139B0290009313AB0193059B0392186827
:102FD0002246434600F0D4F810F10E0F824609D184
:102FE0000B9A3AB1DDF820B000236FF01A0A139360
:102FF0000F9402E00F94DDF820B0089B4BB1059AC6
:10300000CDF80080906849460022139BFEF70EFA27
:1030100006E0002E14BF304648461399FFF7A0FD86
:10302000BAF1000F01D0129B13930A9B33B9059A92
:10303000494690681A464E4B9847B146139B1F4627
:103040000D93BAF1000F18BF0027B9F1000F10D08F
:10305000D9F81030D9F808209B1A1F2B02D8059AEE
:10306000906840E048461021FFF76AFDD9F81060EB
:103070004DE007F12C0340F21472B3F5E86F34BF52
:103080003C461446059B04F12C019868394B98473F
:10309000814600284FD004F11C01FFF761FD48462E
:1030A0000C21FFF755FDD9F81060B8F1000F08D0DA
:1030B0003CB1414606F1100022462F4B9847A044F0
:1030C0003F1BCDF830901DE0059AB7F5E86F34BF8F
:1030D0003D464FF4E86590682946264B98470446DC
:1030E00030B9059B986849460122214B984722E058
:1030F00041462A460069204B98470C9AA8447F1BFA
:1031000014600C94B8F1000F01D0002FDCD10D9A9F
:103110000F9B7260079A3360130C1B04BAF1000F07
:1031200001D043F00103B360059BC6F80CA05868BA
:103130004946FFF759F8BBF1000F15D0059A5946DB
:1031400090680E4B099A98470EE009906FF0170AA5
:1031500006460A960E9B4FF00008C346079358E7B1
:10316000DDF82080002673E615B0BDE8F08FC0467C
:10317000FD0C0200350D0200290A02001D1E001E72
:103180001FB5C06B11469E469DF8244008B9013812
:1031900009E0079B026A0093089B0294019354691B
:1031A000069B7246A04704B010BDC0467047C0469B
:1031B0007047C0467047C0467047C04610B50446C9
:1031C000C06B036A5B68984710B9012384F84230EA
:1031D00010BDC04610B58068FDF790FE10BDC0461A
:1031E000036810B598680121FDF752FE10BDC04676
:1031F00073B504460D4699B192B1836B83B9C66B22
:1032000076B9C263A1634A63516300964068214660
:1032100022682B4631F0E2FBE06008B1304601E065
:103220004FF0FF307CBDC04610B5C068FFF726FDEB
:1032300010BDC04670B5114604460D4B4068984716
:103240000146E068FFF7C6FC054678B120682946CC
:10325000FEF7D0FF38B1AB8AE269D2186369E26148
:103260000133636102E0E36A0133E362002070BD71
:10327000B50C020010B50068FEF7F8FF10BDC0469F
:1032800010B50068FFF74AF810BDC04670B5044697
:10329000C0680D46FFF776FC98B960682946094B6F
:1032A0009847024630B1E16B21B10B6AA06BDB6835
:1032B000984718B1A36A0133A36202E0236901337E
:1032C000236170BDD90C0200520002F50062885AD9
:1032D00080B270472DE9F041134B80461E681EE016
:1032E000B368F4684046E718104B9847054610E06D
:1032F000204641462A460E4B984730B9635D3D2B28
:1033000003D1631C58190DD108E014F8013B002BC0
:10331000FBD1BC4202D22378002BE9D13668002EC3
:10332000DED13046BDE8F081F0FB020081080200EA
:103330002D08020073B50E461546FFF7CBFF002897
:1033400032D00246002004462BE0B31E032B22D8C5
:10335000DFE803F01A120A02104601A90022134BFB
:103360009847019A80B216E0104601A900220F4B3F
:103370009847019A00B20EE0104601A900220B4BBB
:103380009847019AC0B206E0104601A90022074BF7
:103390009847019A40B2137833B1AC4204D001325D
:1033A00001341378002BD0D180B27CBDA1A3001EC4
:1033B000024600F47F43000640EA032002F47F0344
:1033C00040EA132040EA12607047C046030A0B70BF
:1033D000487070470378407840EA03207047C04641
:1033E0000022C36B0BB1013BC363531CDAB2103034
:1033F000102AF6D1002070472DE9F0478E8A9046BA
:103400000D2E99460D6935DD05F10C042046FFF7B8
:10341000E1FFB0F5C06F01D300270BE0152E29DDC9
:10342000164805F10E010622154B984710BB05F111
:10343000140401272046FFF7CDFFB0F5014F07D157
:103440000434A21CAB199A4214D82046FFF7C2FFDD
:1034500040F6060398420DD1A01CC5EB0003C3EB58
:1034600006031C2B00DC05D1C8F80000002089F8F9
:10347000007001E04FF0FF30BDE8F0872EBF020082
:103480002D0802002DE9F0478246894606460027AE
:10349000F36BD3B10AEB071303F13004204609F1B3
:1034A0000E010422DFF83480C04770B9043409F1FA
:1034B0000805204629460622C04730B12046294645
:1034C0000622054B9847012004E001371036102FE3
:1034D000DED10020BDE8F087290A02002D08020095
:1034E00070B506460D46002406EB840008302946D8
:1034F0000422054B984708B9013003E00134082C39
:10350000F2D1002070BDC0462D0802002DE9F04721
:1035100007468946904604460026E36B73B107EBE5
:10352000061303F13005284649460422084B984704
:1035300020B92B1D0130C8F8003007E001361034E7
:10354000102EEAD10023C8F800301846BDE8F087F5
:103550002D0802002DE9F04F0368012A14BF2A2626
:10356000322685B007468946986C31463A4B9046DC
:103570009847019038B93A680138D2F8F0330133EE
:10358000C2F8F03364E0019B09F10E0B59460422A6
:10359000324D03A81C69A8470398FFF709FF4AF6B4
:1035A000FE13B3EB104F0BBF2D4909F10801204664
:1035B000204607F1280A0622A8475146A01D0622E8
:1035C000264DA84704F10C01B8F1000F0CD030468D
:1035D000FFF7FCFE234904F10E000622A84740F63F
:1035E000060004F1140101E040F60600A419A4F15C
:1035F0001C06FFF7EBFE194D494606223046A84748
:103600004FF00008022304F8153C5146062204F846
:10361000168C06F10800A84709F11801042206F1EA
:103620000E00A84709F10801062206F11200A8477A
:103630005946042206F11800A847D7F85C313868CB
:103640000133C7F85C310199424607F027F80120A1
:1036500005B0BDE8F08FC046350D0200290A020012
:1036600028BD02002EBF02002DE9F74F01928A7893
:10367000074648780C78884640EA0203C97844EA4D
:1036800003030B4355D000EA020304EA030301EAF3
:103690000303FF2B4DD00198FDF70EFF002848D102
:1036A0000198FDF717FF002843D13E463D4681466D
:1036B000EB6BB3B14FEA091B0BF13003FC18201D73
:1036C00001990622DFF878A0D04750B9204641463C
:1036D0000422D04728B9D7F860310BEB0702D36337
:1036E00029E009F101091035B9F1100FE0D10025E9
:1036F000D6F83C90B9F1000F12D12D0105F130043C
:103700003C19414604220D4E2046B047201D019928
:103710000622B047D7F86031ED194846EB630AE05E
:1037200001351036102DE3D1D7F83C310133C7F8FD
:103730003C314FF0FF30BDE8FE8FC046290A020041
:103740002D080200F0B5436889B013F0010F074659
:1037500000F0E4800123009306AA0DF11F03FFF798
:103760004BFE0028C0F2DA8097F86431012B00F09C
:10377000D880069904AA0E313846FFF7C7FE06998D
:1037800005AA183104463846FFF7C0FE06990646DA
:103790000E313846FFF7A4FE069905461831384623
:1037A000FFF79EFE0699002C14BF08240024002871
:1037B00018BF013404220E315B4B03A89847069BC7
:1037C000002E14BF042600269A79DB79002D14BF41
:1037D00002250025A41942EA03236419B3F5807F6A
:1037E00053D1D7F84C3107F128000133C7F84C31D9
:1037F000FDF762FE002840F09480039B002B00F050
:1038000090800C2C00F28D80DFE804F073078B8B26
:10381000288B8B8B192E8B8B1900069A384602F158
:103820000E010832FFF720FF7B6813F0080F78D0F5
:10383000384606999DF81F20FFF78CFE71E0384648
:103840000699FFF71FFE01286BD00699042201F1AB
:103850000E00364B18319847002862D0D7F8503107
:103860000133C7F8503157E038460699FFF70AFE92
:10387000012856D07B6813F0080053D038460699CB
:103880009DF81F20FFF766FE4CE0B3F5007F45D1A1
:10389000D7F854310133C7F854310C2C41D8DFE844
:1038A00004F0071040404040404022224040300099
:1038B0000398FFF77DFD4AF6FE13B3EB104F30D1AE
:1038C00025E0069807F1280112300622174B984789
:1038D000044630BB069A384602F10E010832FFF763
:1038E000C3FE20461EE038460699FFF7CBFD0128AF
:1038F00017D0069A384602F10E010832FFF7B4FEDF
:103900000FE038460699FFF7BDFD012809D0D7F82A
:1039100058310133C7F85831042003E04FF0FF302D
:1039200000E0002009B0F0BD290A02002D080200C5
:103930002DE9F0470746904648788A780C780E467D
:1039400040EA0203C97844EA03030B4353D000EA78
:10395000020304EA030301EA0303FF2B4BD04046B2
:10396000FDF7AAFD002846D14046FDF7B3FD81468C
:10397000002840D107F128052846FDF79DFD58B1E4
:10398000314604221E4C07F10800A0472846414654
:103990000622A047484630E0284641460622194BF9
:1039A000984740BB044607EB8400083031460422A8
:1039B000144B984708B30134082CF4D13946002041
:1039C0000B7A4A7A1A438B7A1343CA7A52EA03046F
:1039D00008D107EB8000083031460422084B984795
:1039E00020460AE0013004310828E9D1D7F8343103
:1039F0000133C7F834314FF0FF30BDE8F087C046DF
:103A0000290A02002D0802002DE9F04F012B14BFF6
:103A10002A2632269846036885B007468A46986C5F
:103A20000192B11C3E4B9847834638B93A68013839
:103A3000D2F8F0330133C2F8F0336EE003690AF1D3
:103A400018099C1C838A4946023B83820422354D17
:103A5000046103A8A8470398FFF7AAFC4AF6FE13DF
:103A6000B3EB104F0BBF30490AF108012046204646
:103A70000622A8470199A01D06222A4DA84704F155
:103A80000C01B8F1000F0CD03046FFF79FFC27491E
:103A900004F10E000622A84740F6060004F11401C6
:103AA00001E040F60600A419A4F11C06FFF78EFC05
:103AB0001C4D514606223046A8474FF000084FF0F3
:103AC000020304F8153C04F8168C0199062206F14D
:103AD0000800A8474946042206F10E00A8470AF14B
:103AE0000801062206F11200A8470AF10E0104227D
:103AF00006F11800A847D7F848313A680133C7F8EB
:103B00004831012387F86431D2F83C0741465A46D0
:103B100000F02EFB87F86481022005B0BDE8F08F2D
:103B2000350D0200290A020028BD02002EBF020046
:103B30002DE9F041436888B013F0010F074600F00B
:103B4000B38013F0060F00F0AF804FF0000806AA14
:103B50000DF11F03CDF80080FFF74EFC4045C0F289
:103B6000A580069904AA0E313846FFF7CFFC0699C6
:103B700005AA183104463846FFF7C8FC06990646E0
:103B80000E313846FFF7ACFC069905461831384629
:103B9000FFF7A6FC444514BF08244446464514BF1D
:103BA00004264646404518BF0134454514BF02254A
:103BB0004546A4196419069DAA79EB7942EA0323C4
:103BC000B3F5807F3AD1D7F8403103A80133C7F865
:103BD000403105F10E01384B04229847039B002B1E
:103BE00062D0042C11D0062C1CD0002C5CD17B6838
:103BF00013F0020F58D0069A384602F10E0108322F
:103C0000FFF796FE002851D14EE07B6813F0020FBB
:103C10004AD0069A384602F10E010832FFF788FEB4
:103C2000002843D17B6813F0040F3DD03846069935
:103C3000059A9DF81F30FFF7E7FE39E0B3F5007FE6
:103C400034D1D7F844310133022CC7F8443116D0AF
:103C5000042C1CD044BB7B6813F0020F06D03846FE
:103C600005F10E0105F10802FFF762FE069A3846DB
:103C700002F118011232FFF7F7FC204618E038462F
:103C800005F1180105F11202FFF7EEFC0AE07B686E
:103C900013F0020F08D0384605F10E0105F10802B5
:103CA000FFF746FE404603E0002001E04FF0FF3002
:103CB00008B0BDE8F081C046290A02002DE9F043B2
:103CC00085B002F00103DDF838800F9F00930546B0
:103CD0001646006842463B465A4CA047814600289B
:103CE00040F0AB800D2E08D8DFE806F00C0A120F6A
:103CF00007175023071D780707736FF016099CE01C
:103D0000281D37E04046291D35E005F5B07031E04B
:103D1000D5F86031C8F800308FE005F1300000219F
:103D20004FF4807203E005F1080000212022464B89
:103D300023E00D9B032B7ED905F128042046FDF7D7
:103D4000BBFB28B1296820464C3106223F4B9847DF
:103D5000414603A804223D4B9847294600200B7A90
:103D60004A7A1A438B7A1343CA7A1A4307D105EB6E
:103D70008000083041460422344B98475DE0013012
:103D800004310828EBD16FF0150956E046462C4661
:103D90004FF00008237A627A1A43A37A1343E27A37
:103DA0001A430AD0032F46D905EB88013046083163
:103DB0000422264B98470436043F08F101080434D6
:103DC000B8F1080FE6D1032F35D93046002104227F
:103DD000ADE705F5987000213022A8E72F2F2AD9EA
:103DE0000023C5F838311A46AB18DB6B23B1D5F880
:103DF00038310133C5F838311032B2F5807FF3D154
:103E00000023C5F8303129460B7A4A7A1A438B7A57
:103E10001343CA7A1A4304D0D5F830310133C5F8B8
:103E20003031043105F120039942EDD1404605F5CA
:103E300098713022A0E76FF00D09484605B0BDE843
:103E4000F083C04689360200E9090200290A02000F
:103E5000034609B9986800E048687047C36810B520
:103E60004068984710BDC046836810B5586B18B1BC
:103E7000036A9B6903B1984710BDC04610B503683B
:103E80000446587C18B1606801210DF011FD2368CB
:103E90005B7C53B130B1002104F138000A46034B7A
:103EA000984702E0606800F06DFD10BD0D1C001E1B
:103EB00013B5846A0DF10701606801F051F828B16B
:103EC0009DF8073013B12046FFF7D8FF1CBDC04650
:103ED00010B5406800F056FD10BDC04607B5836AB6
:103EE000002200925868022113460BF097F80EBD8D
:103EF00070B58C6AA368994203D0C96B09B10E688A
:103F000000E0002623681146986C134B98472368FD
:103F10000546DB692BB1C38A13F0070101D10F4BB2
:103F2000984723685B7D6BB1A06F2946FFF700FEC1
:103F3000022807D123682946986C0122084B98472C
:103F4000012007E060682946324606F0A7FB0038EA
:103F500018BF012070BDC046B50C02009DA6001E12
:103F6000FD0C02002DE9F043002385B0DDF8389008
:103F7000039302F00103D0F804800093054616462F
:103F800000684A460F9B1F4CA0470746002834D1C3
:103F90000D9B032B04D903A80C9904221A4B9847B4
:103FA000039C032E03D8DFE806F0050709166FF01F
:103FB000160722E06B7B0BE06C731EE04046252168
:103FC00002AA0BF0A1F80746B8B9029B03F001035F
:103FD000C9F8003011E0003C18BF012440462621FA
:103FE000002C0CBF4FF480324FF001120BF094F80C
:103FF0000CB1064B00E0064B9847384605B0BDE8CB
:10400000F083C04689360200290A0200091E001EFC
:10401000ED1D001E2DE9F04F856A9946AB6885B00D
:1040200098428846174604D0C06B10B1D0F800A063
:1040300001E04FF0000A6FF409434344C3460A2BE2
:104040000AD8DFE803F00D172F3240454A4D5006DD
:1040500025004FF0A2085DE000204FF0FF3B5AE042
:1040600000220097CDF804900292CDF80CA0686869
:104070002F4909E001230097CDF804900293CDF871
:104080000CA068682A490022134604F0D3F942E0E4
:1040900000220097CDF804900292CDF80CA0686839
:1040A0002449F1E740F2DC5310E02846224B9847C0
:1040B000384605F11001B9F1240F34BF4A462422D5
:1040C0001E4B984726E02B6893F822303B6021E096
:1040D0002A683B6882F822301CE04FF0090819E09A
:1040E0004FF00A0816E02A680623002499FBF3F330
:1040F0002646C2F8143108E0062204FB0210F1192A
:1041000052301CF091FC013406362968D1F8143184
:104110009C42F1D30020D84507D0CDF800A06868B4
:1041200041463A464B460AF079FF05B0BDE8F08FAC
:10413000A8BF0200B6BF0200F10D0200290A02006A
:10414000536807B5102B01D0122B10D1937803F0D0
:104150000101017359B9406843F2F823C35813F4BD
:10416000805F04D00A460B46009109F087FC0EBD23
:104170002DE9F0410446154609B9A76800E04F68EB
:1041800023687E6B5B7D63B1A06F2946FFF7DAFA87
:10419000042801D0012804D123682946986C002204
:1041A00049E02869027B437B002E40D043EA02228B
:1041B00048F66C039A4222D0F36A13F0010F13D031
:1041C000627B8AB112F0010F03D0037813F0010F64
:1041D00005D012F0020F04D0FDF77CF908B10123DD
:1041E00000E000231A4633B1D4F8800029461AF0C3
:1041F000D9FF024618B923682946986C1BE023684A
:104200002946986C0E4B9847428B95F9273022F03F
:10421000FF0213434383336A0446DB683846314662
:104220002246984748B12046064B984705E0236848
:104230002946986C3246044B9847BDE8F081C04649
:10424000D90C02004D0D0200FD0C020037B50C4BDD
:10425000026800930B4B04460193126808460A4B10
:104260000D460A49FDF7C2F823680949D868094B89
:104270009847024618B128460749FDF7B7F83EBDF2
:10428000E9BF020099BF0200DDBF0200C5BF020006
:10429000F2BF020015070200FBBF020010B5036861
:1042A0005B7C13B1406806F0F1FE10BD70B5036889
:1042B00042685D7C0DB1002515E00C4B1C781CB1EB
:1042C00010460B4B98470EE010462CF041FD05467A
:1042D000FCF786F92046FCF73BFAFCF7F5F9054BAD
:1042E000014605489847284670BDC0469FFA02001F
:1042F000F12E020039AA001E12C0020010B540685B
:1043000000F04AFB10BDC04610B5406800F0B6FC96
:1043100010BDC04610B5034B1B780BB92CF046FA04
:1043200010BDC0469FFA020010B5446823685B7C4C
:104330002BB1606800F02AFE2046FFF79FFD10BDFC
:104340000246938A0069401AC91810619182704729
:104350000246938A00695B1A401810619382704785
:1043600081827047C08A00F007007047C38A01F05D
:10437000070123F007031943C182704700F0FF03D0
:10438000000A40EA03207047024600F47F4300061B
:1043900040EA032002F47F0340EA132040EA12605F
:1043A0007047C0464378007840EA03207047C04613
:1043B000024643788078000440EA032013781843CB
:1043C000D37840EA0360704710B531B14B7C23B11C
:1043D000D1F8780708B1036E984710BD00207047E8
:1043E00042F6BC63C058003818BF01207047C04671
:1043F000B0F8201390F8503390F86B2D01FB03F3C5
:104400005B0012B102FB03F305E090F86A0D10B1F6
:1044100000FB01F35B00B3F5FA6F2CBF18464FF4B5
:10442000FA60704701390E2927D8DFE801F0080B40
:104430000E11262626262614171A1D20230042F6C2
:104440005C3319E042F65D3316E042F65E3313E06A
:1044500042F65F3310E042F660330DE042F661331E
:104460000AE042F6623307E042F6633304E042F6C4
:10447000643301E042F66533C254704741F2E443CD
:10448000984201D0002005E044F22E33994214BF37
:10449000002001207047C0460120704790F824306A
:1044A00013BBD0F8F8379B78F3B942F6BC63C35816
:1044B000D3B9B0F8123DBBB9D0F8143DA3B943F25B
:1044C000D823C35883B943F2DC23C35863B990F8A7
:1044D0001A3D4BB9C37C3BB943F28543C35CD3F16E
:1044E000010038BF002000E000207047013103299F
:1044F0002CBF6FF01C0000207047C046B0F8020EC1
:104500007047C046CB6943F40073CB61D0F80C38D8
:10451000D3F88031D2188A627047C04630B592F81D
:104520004C3092F84D2041F60C04015B43EA022323
:1045300048F21802054603EA020247F6E07042F02C
:10454000040200EA411042EA00000131295330BD63
:1045500048F2F303994201D1012005E048F23713F4
:10456000994214BF002001207047C046D0F80C3893
:1045700003F5A072136813F0080FFBD14FF002038C
:104580001380704790F8533D00B5BBB190F8501DB3
:104590004FF0000E00EB0E0303F529531A880EF1BD
:1045A000020E40F629139A4298BF41F00101BEF174
:1045B0000C0FEFD1D1F1010338BF002380F8523D39
:1045C00000BDC046D0F80C28002393617047C04658
:1045D000094BC1F3411233F81220084B01F00F01CF
:1045E0005B5C80F8823180F88331DBB2A0F88021F7
:1045F00080F884317047C04614C10200D2C0020066
:104600007047C0467047C04610B51046C2B14C68EE
:1046100044F480724A604379012B94BF44F4A06350
:1046200022F480634B604378052B09D9037A13F099
:10463000040F4B6814BF43F0806323F080634B602A
:1046400010BDC0462DE9F04701F11C07397A8146BB
:10465000924601B319E00C2401FB049404F52E5595
:10466000503501236B7042F6C83842F6CC33E2581D
:10467000514654F808604846B047002242F6D0330D
:10468000297844F808206A70E2544B1EDBB2072BED
:10469000E1D900233B72BDE8F087C04643F289139D
:1046A000C25642B9013BC254043BC25000F54650C9
:1046B000037803B102707047042902DD6FF0010036
:1046C0001DE0C9B983689B6913F0005F06D0D0F87C
:1046D000303813F0005F01D0032307E0D0F88C33AB
:1046E00013F0800F01D0042300E00223C0F8143837
:1046F0000323C0F8143801E0C0F8141800207047F4
:1047000010B584466FEA020E08461EEA0004114600
:1047100002D06FF01C000FE041F232421CF8023070
:1047200003EA0E0E0CF802E030B101EA00034EEA93
:1047300003030CF80230204610BDC046436B10B591
:10474000ABB1012980F83C1005D0B1F1FF3F07D192
:1047500090F8983B23B1012241F23043C25406E065
:10476000002141F23043C1540422FFF7C9FF10BDBC
:1047700012B9D1F820010EE0012A04D1D1F820317C
:1047800003F10A0007E0022A0ABFD1F820316FF0D6
:104790009500A3F10A007047082810B5144601D906
:1047A000002008E0044B13F8202003EB80030A707C
:1047B0005B880120238010BDC2EE0200D0F848388B
:1047C00058687047D0F8483818687047D0F8C43730
:1047D00010B523EA01011143994205D0C0F8C4176E
:1047E000024B00F5E860984710BDC0462554001EF6
:1047F000002310B5C0F8C437C0F8C837C0F8CC37AC
:104800004FF0FF31014AFFF7E1FF10BD0004000443
:10481000037C10B52BB190F8503D13B94FF0807266
:1048200000E000224FF0A071FFF7D0FF10BDC0469E
:10483000012310B5044680F83D3D044B98472046BF
:104840004FF400310022FFF7C1FF10BDD91502005F
:10485000002310B580F83D3D044B044698474FF4C3
:10486000003120460A46FFF7B1FF10BDD9150200FE
:10487000D0F8883010B523EA0103C0F8883033B986
:10488000D0F8843013F0806F01D1014B984710BDF0
:104890002554001E70B59378D478D0F80C581B04BA
:1048A000107843EA04635678147903434900507939
:1048B00041F48022013143EA062344EA002441F412
:1048C0008021C5F86021C5F86431C5F86011A5F8EC
:1048D000644170BD537870B51678947846EA032623
:1048E000D378D0F80C5844EA03241079537941F076
:1048F000200140EA032089B2A5F82014A5F822641B
:10490000A5F82244A5F8220470BDC04600F548531E
:104910001433994210B50A4603D10321D432FFF76C
:10492000D9FF10BD10B50321014AFFF7D3FF10BD19
:1049300022BD0200D0F84838D0F80C28A3F8341172
:10494000024BC2F86031C2F86411704703000200E4
:10495000D0F84838D0F80C28A3F83611024BC2F82A
:104960006031C2F86411704704000200002243F273
:10497000F413C2547047C046D0F83008C0F3C640A4
:1049800040027047D0F8082DD0F80C38C0F8042D3C
:10499000C3F82C217047C046D0F844381B7A2BB19D
:1049A000D0F80C38C0F8041DC3F82C117047C0466D
:1049B00010B50121014B984710BDC046A116020059
:1049C00000EB810370B50446D3F878070D4608B1B3
:1049D0004369984794F8C11759B10123AB4021EAC4
:1049E000030384F8C13723B904F5E8600821FFF711
:1049F0003FFF70BD0B6810B55F2B0C460BD89221A2
:104A0000064B9847400080B228B1236800EB43036F
:104A10000120236000E0002010BDC046CD1602003A
:104A200073B5082206460D46684607491BF0FCFF91
:104A300000243DF80410625B3046044B0234984772
:104A4000082CF6D17CBDC04604CD0200ED16020054
:104A5000F7B543F29043C55A4FF0020215F0010337
:104A6000009202F5FF7218BF13464FF00101144C7B
:104A700006460027A047012255FA02F313F0010F62
:104A800004D0104B03EB82035B881F430132092AD9
:104A9000F2D102244FF6F7533046214607EA0303CA
:104AA000009441F20452064DA84700234FF480526F
:104AB00000933046214607EA0203A847FEBDC046E0
:104AC00055170200C2EE02002DE9F04106460C46E1
:104AD00001F1250700250CE02B1993F826307A5DAB
:104AE00005F5B07102EB0322304692B2E047AB1CF1
:104AF0009DB294F82420DFF810C09542ECD33046E4
:104B00004821E047BDE8F081ED16020070B50A4B80
:104B10000446984794F86B3D084D012B03D120467D
:104B2000B621002205E094F86A2D2046B62142EA1B
:104B30000322A84770BDC046750E0200ED160200A4
:104B400010B590F82320D0F80C38002A0CBF0222B0
:104B5000FA22A3F812269621014B984710BDC046B1
:104B6000ED16020042F69A3370B55421C45A064B32
:104B70000546984720F47070044354212846A2B299
:104B8000024B984770BDC046CD160200ED160200DC
:104B900070B50121D0F80C480A460546D4F82031FA
:104BA000FFF714FE0123C4F8283105F5E86004215D
:104BB000D4F82031D4F82831FFF75AFE70BDC04632
:104BC000D0F85C371A71704710B543F2B913C35C63
:104BD00091F845E03BB942F69933C35C012B02D012
:104BE00091F8442000E00022964581F8452002D04B
:104BF0008968FFF7E5FF002010BDC046D0F80C38EB
:104C0000D3F880010860D3F8843113607047C04640
:104C100070B5437C05465BB361B140F604042146A0
:104C20000022144B28469847023440F60C039C425D
:104C3000F5D11DE000F55254203440F6040631460B
:104C40000D4B28469847A91942F6AC4E31F80E3064
:104C5000984207D0C3EB0002236892B29B182360EE
:104C600021F80E00023640F60C0304349E42E6D1D1
:104C700070BDC046ED160200CD16020070B5D0F82A
:104C800044380546187A08B9064612E0D5F80C38BB
:104C90000024D5F8046DC3F82C41D3F82C31012041
:104CA000054B9847D5F8003DC5F8044DA34218BF01
:104CB0002646304670BDC0465100020070B50B4B11
:104CC000054628209847B5F8243803F1090403E085
:104CD0000A20064B98470A3C40212846044B984737
:104CE000042801D1092CF3D870BDC0465100020040
:104CF000CD1602000A46D0F8C81710B5044621B9EF
:104D0000D0F8C43713F0806F04D042EA0103C4F82E
:104D1000C83708E0C0F8C827034B00F5E86098479B
:104D20002046FFF7CBFF10BD2554001E70B5D0F80C
:104D30000C4804210546FFF7DDFFD4F82031B3F11C
:104D4000FF3F1DD0D4F82831B3F1FF3F18D02846DB
:104D500001210022FFF73AFD0C4E03E00A200C4B24
:104D600098470A3ED4F8283113F0010F01D1092EDB
:104D7000F4D1D4F82831D4F82031B3F1FF3F03D176
:104D8000D5F83C07FFF78AFA70BDC04641440100E0
:104D90005100020001238B4070B590F8C127DCB2AE
:104DA00004EA0203A34205460E4610D012B90821B8
:104DB000FFF7A0FF95F8C13744EA030385F8C13730
:104DC00005EB8603D3F8780708B10369984770BDEF
:104DD00073B50DF102060D46044600213046062249
:104DE0001BF002FE75B120460121FFF7D3FF2046DC
:104DF0000321FFF7CFFF204600213246FFF76AFD6F
:104E0000012314E094F8CE3D1BB920460121FFF7A1
:104E1000D7FD20460321FFF7D3FD2046294604F1A4
:104E20004C02FFF757FDD4F8CC376BB10023C4F820
:104E3000CC37D4F8C43703F4C023B3F5003F03D014
:104E400004F5E860014B98477CBDC0462554001E20
:104E5000012110B580F8CE1DFFF79CFF10BDC046A4
:104E6000002343F22E4210B58354014B984710BDE6
:104E7000191B02002DE9F04190F81C68044616B990
:104E80000121164B9847D4F844381D7A55B9A068CB
:104E900029462A46124B98474FF4806120460A461D
:104EA000FFF794FCD4F80C38D3F858711DB9A068FA
:104EB00029460C4B98471EB920463146074B984768
:104EC000D4F8103717F4803F14BF43F0020323F0E7
:104ED0000203C4F81037BDE8F081C0469954001EA3
:104EE000AD040200B50402002DE9F041D0F80C68D1
:104EF0000446D6F82821B2F1FF3F01D1002728E06F
:104F000011B1D0F8043D01E0D0F8083D13EA0207E2
:104F10001FD0D4F80C380025C3F82C5117F4800F9B
:104F2000D3F82C31C4F8045D0AD0012384F8443D41
:104F30002946094B2046984720462946074B984763
:104F400017F4004F18BF4FF48033C6F8287118BF0C
:104F500033623846BDE8F081351F0200FD170200BC
:104F600070B500230B70437C04460D4663B1D0F846
:104F7000043D4BB10121FFF7B7FF28B101232B708E
:104F8000C4F8000D184600E0002070BD10B50021E7
:104F90000446FFF7A9FFB0F1FF3F01D1013005E062
:104FA000D4F8003D0343C4F8003D012010BDC046C5
:104FB000002142F63843C15000F5305010B53C3066
:104FC0004FF40072014B984710BDC046E90902003A
:104FD0002DE9F0471046984691F80190234C0D4674
:104FE000164600210422DDF820A0A04700211C2243
:104FF0004046A047B9F1050F02D84FF0FF3033E02B
:10500000AB78EF1C3370EB783C4673707B78B370F1
:105010000023F370A9F103035FFA83FC1CE0A0787E
:10502000E57894F804E00E288CBF042601260FE0F2
:1050300000F0070301229A40C10818F80130134319
:1050400008F8013083190AF800E0D8B26B1EDDB20F
:105050000DB1DF28ECD903340323BCFBF3F202FBD0
:1050600003739C42DBD10020BDE8F087E909020010
:105070004FF48E7301FB0303D0F8442803F5046357
:105080000C339A4270B504460D4616D0C0F8443829
:1050900090F81C383BB190F8102D22B980684FF47D
:1050A0000051064B9847A06840F612012A46FBF7CC
:1050B000DFFEC4F80C08C4F8580770BDE90502000B
:1050C0004FF49E7301FB03F303F52863C318043305
:1050D00070B5C0F848380D4600EBC103D0F8401851
:1050E00003F5EC630446C0F85C3701298CBF294600
:1050F0000021FFF7BDFF94F81C385BB194F8103D18
:1051000043B94FF40051A068002D0CBF0A4600229D
:10511000014B984770BDC046E905020070B590F894
:105120001D5804460E4615B929460F4B9847D4F82A
:10513000483871B2186811F011FAD4F84838A168EB
:10514000186819F08BFAD4F84838186818F07CFC05
:10515000D4F8480831467830044B98471DB92046AA
:105160000221014B984770BD1D1A020025880200DC
:1051700070B5D0F8D06796B18568002213463146E5
:10518000074C2846A047314632460023054C2846A6
:10519000A0470022284631461346034CA04770BD65
:1051A000A5050200690502002D05020010B5437C2B
:1051B0001BB1D0F83C07FFF7A1F810BD10B50346AE
:1051C000407C18B1D3F83C07FFF79EF810BDC046ED
:1051D000D0F8483810B518684FF0FF31002212F0AF
:1051E00071FF10BDD0F8481870B570310446FFF754
:1051F00017FC2E4904F5E8602D4B9847D4F8483841
:105200002C4D186818F020FC012384F8143742F65E
:105210009A33E15A2046284B9847D4F8483820461C
:10522000B3F83411FFF786FBD4F848382046B3F8BA
:105230003611FFF78DFBD4F848382046596801290C
:105240001CBF42F64733E15C1C4B984720461C4B81
:105250009847D4F8483852211B6820461A88A84736
:10526000D4F8483850211B6820469A88A847154B27
:105270002046984794F82330134A002B0CBF4FF474
:10528000FA7E4FF4967ED4F848381B681B6923F0E9
:105290007F43934204D1BEF5166F38BF4FF4166EAC
:1052A000204694217246A84770BDC04690E1020096
:1052B000E53E001EED160200B956001E85190200DB
:1052C000851802002D260200502008002DE9F04725
:1052D0002A4B044680680F469847014630B9A068BB
:1052E0000A46274B98472046FFF782FAD4F83C0736
:1052F000FFF70AF8D4F84838002181464FF000083B
:10530000186815F0DBFB1F4E42F20A010A2284F8EE
:105310001487A068B0471C4D0120A8470A21082225
:10532000A068B0470120A84720463946FFF7C8FECD
:10533000637C03B30A210222A068B0470120A8477A
:1053400002214246A068B0470120A847012384F803
:10535000653D20460D4B98472046FFF743FFD4F8A4
:10536000003D1BB14FF40043C4F8003DD4F83C07A6
:105370004946FEF7C3FFBDE8F087C046E1050200DD
:10538000AD040200E905020051000200191B0200F1
:1053900070B5C1F30224012C98BF022411F0006FF4
:1053A0000D4601F07F0009D00D4A142300FB0323B2
:1053B0001B7CC1F3072141EA03230BE0094B98470B
:1053C00080B203B2B3F1FF3F08BF002000B244EA4D
:1053D000002083B2C5F3C22043EAC00070BDC046BE
:1053E00058E3001EDD6E001E2DE9F04F0C46A1B003
:1053F00000218B420CBF022303230592D4F81090A6
:1054000004F11C021D911C910E93149299F8002036
:1054100099F80130074642EA0323C3F3810B069350
:10542000BBF1020F0ABF06990B46C1F3C013DBB2F2
:105430001193806C2146A44BDDF8B8A02F9D9847AE
:1054400004300890BAF1000F03D09AF90F30C01859
:105450000890D7F83038002B21DABAF1000F1ED0AF
:105460009AF80830022B1AD142F61123FB5CB3B92B
:10547000D7F8D03DD3F8943013F0080F0FD19AF835
:105480000630352B0BD8032B09D90B2B07D82B9AB9
:10549000012A04D1089B15920833089301E00020EB
:1054A000159006212046FEF74BFF68210790204605
:1054B000FEF746FF00216822844B06469847149960
:1054C0000B6813F4806F01D08A8827E0059B5A6827
:1054D0007F4B02EA0303D3B1069800F0FC03882B4C
:1054E00015D199F8043013F0010F10D12046FEF7C2
:1054F00039FF059A02EB40012B98B1F87021431E49
:105500002A9898420AD1531CA1F8703106E0BBF1E9
:10551000010F14D000224FF0100804E0BBF1010F7E
:105520000DD04FF000082A9901F00F0343EA02134F
:105530009BB289F816301B0A89F8173001E04FF04A
:1055400000082C9A042A08D1059B3846596932462E
:10555000FEF7E4FFADF87C0019E02B9841F60A0154
:10556000431E2A987A5A984201D1531C7B522A9999
:105570002C9801F00F0343EA02135B0147F6E07237
:1055800003EA020200F007031A43ADF87C20149AE4
:105590000699136801F0FC0123F080404D4B8029EF
:1055A00005EA0303179108BF48F02008106013B9FB
:1055B000D7F84838DD6B474905EA010111B11C9560
:1055C0001D9524E0D7F848381A6C424B02EA0303D1
:1055D00043B199F8043013F0010F03D08C461C92AC
:1055E0001D9248E099F8043013F0010F08D1BBF187
:1055F000000F05D0BBF1010F02D010F0100F09D041
:10560000059890F8FC3003F07F031C931D934FF036
:10561000000C30E01CAB00930DF17F0301930DF102
:105620007E0302930DF17A03039305991FAA1DAB24
:10563000D7F8F00719F058FF14990B6843F080422F
:10564000BDF87A300A6013F0010F18BF42F400531E
:10565000149A18BF0B60136813F0100F05D005984B
:1056600090F8FC3003F07F031C932A99D1F1010CD0
:1056700038BF4FF0000CBB685B6B8BB99AF80830F1
:10568000022B0DD11D9A12F0006F09D102F07F0399
:10569000302B05D922F07F0343F030031D931C9378
:1056A000D7F84838796B93F845401D9A002900F0E7
:1056B000328112F0006F02F07F010DD007290FD95F
:1056C00020290DD03FE0C046F9050200E90902009B
:1056D000400001007F000008AB4B5B56002B32DA24
:1056E000002A30DB22F4401020F4605012F0006FEA
:1056F0001D9025D0059A536813F0804F06D0D7F837
:10570000483893F94630B3F1FF3F05D0D7F8483811
:1057100093F94630012B13D19C4A40F48051142355
:1057200000F07F0000FB03231A7C42F69933FB5CF8
:10573000A3EB9213013BDBB241EA03511D9102E05E
:1057400040EAC4231D931C9911F0006F01F07F0201
:1057500004D0072A06D9202A04D037E08A4B9B566A
:10576000002B33DA1D9B002B30DB21F4401020F49A
:10577000605011F0006F1C9025D005994B6813F014
:10578000804F06D0D7F8483893F94630B3F1FF3F41
:1057900005D0D7F8483893F94630012B13D17B4A0E
:1057A00040F48051142300F07F0000FB03231A7C97
:1057B00042F69933FB5CA3EB9213013BDBB241EA67
:1057C00003511C9102E040EAC4231C931D9B03F08B
:1057D0007F03202B04BF4FF000631D931C9B1D9A79
:1057E00003F07F03202B04BF4FF000631C931C9B2E
:1057F00022F4E06242F4007223F4E06343F40073A5
:1058000012F000611D921C9301D10C9153E042F6FD
:105810006133FB56032B13D105980E9A436802F0AF
:10582000FD0213F0400F0E9213D0119989B1584B1D
:105830002C9A9B5C07EB4303B3F8883D4BB10BE01C
:10584000012B09D10E9B002003F0FD030E930C9059
:1058500004E001210C9101E000220C9205984368BC
:1058600003F48813B3F5881F03D042F66333FB5C5F
:105870001BB10E9901F0FD010E91D7F84838CDF813
:1058800010C0186810F006FB40B2B0F1FF3FDDF821
:1058900010C00AD0012804D10E9A42F002020E92E2
:1058A00003E00E9B03F0FD030E930E9810F002032D
:1058B00018BF03230E931D9A12F0006F03D0D7F880
:1058C0004C3D012B02D015F4000F02D042F400032E
:1058D00004E0D7F84C3D13B922F400031D931C9A41
:1058E00012F0006F06D0D7F84C3D012B02D142F4E4
:1058F000000304E0D7F84C3D13B922F400031C93D5
:105900001D9B13F4000F15D003F07F03072B0FD955
:10591000202B0DD00EE01C9B22F4E06223F4E06308
:1059200042F4007243F400731D921C930C9101E049
:1059300000210E91BCF1000F11D042F638443959C4
:105940001D9807EBC10242F63C43D0502B98013121
:1059500002F53152C3B201F03F01136039511D9974
:1059600011F0006416D011F4000F084801F07F0216
:1059700004D0142302FB03039B6803E0142302FBFF
:1059800003F31B58139308E070E2001E58E3001E57
:10599000CCC0020001F07F021392BBF1020F02D0D3
:1059A000BBF1000F11D142F64C23FB5A08989842E4
:1059B00004DC149A136813F0806F06D099F8043051
:1059C00083F0010303F0010300E000230B93D7F8F9
:1059D0004838187B50B142F65C33FB5C33B12CB9CC
:1059E000884A01F07F03D356002B07DB7B6B002B2B
:1059F0002BD054B342F66133FB5633B32B9A012AB2
:105A000013D91498036823F08043036042F65C3393
:105A1000FB5C0BB1162300E030231C931D931C9BF1
:105A200043F400731C931D930FE070B142F65C3396
:105A3000FB5C53B14CB9734A01F07F03D3560C9908
:105A400031EA230128BF01210C9105981C9A436873
:105A50000A9213F4803F36D097F8453D002B32D0A0
:105A600097F8483D002B2ED042F66133FB56032BAE
:105A700029D01D9B13F0006F09D103F07F03022B87
:105A800021D0042B1FD00B2B1DD0162B1BD099F827
:105A9000043013F0010F16D11799882913D1149AE5
:105AA00048F48048136843F480531360B9F8182011
:105AB0004FF69F7302EA030343F02003A9F818305E
:105AC00001230D9301E000200D9038461D99089A9E
:105AD000079B4D4C0DF16A05A04738461C99089A62
